:100000000C94AD000C94D5000C94D5000C94D50044
:100010000C94D5000C94D5000C94D5000C941F0CB6
:100020000C94D5000C94D5000C94D5000C94630B63
:100030000C94D5000C94D5000C94D5000C94D500EC
:100040000C94A6090C94D5000C94160A0C94F00993
:100050000C94D5000C94D5000C94D5000C94D500CC
:100060000C94480A0C94D500202050574D206C6504
:1000700076656C733A200020487A00202050574D56
:10008000206672657175656E63793A200020487A42
:10009000002020496E7465727275707420667265F6
:1000A0007175656E63793A20002020436C6F636B35
:1000B000206379636C65732070657220696E746566
:1000C00072727570743A200020204C6F6164206F4A
:1000D0006620696E746572727570743A2000536F91
:1000E000667450574D3A3A7072696E74496E746511
:1000F00072727570744C6F616428293A00000000B8
:100100000023002600290000000000240027002A08
:100110000000000000250028002B00040404040453
:1001200004040402020202020203030303030301A4
:10013000020408102040800102040810200102047B
:10014000081020000000080002010000030407005E
:100150000000000000000000550C11241FBECFEF6E
:10016000D8E0DEBFCDBF11E0A0E0B1E0EEEDFEE2F1
:1001700002C005900D92A839B107D9F723E0A8E98C
:10018000B1E001C01D92A13DB207E1F710E0CDEA58
:10019000D0E004C02197FE010E94F713CC3AD107AA
:1001A000C9F70E941A0D0C946D170C94000083304F
:1001B00081F028F4813099F08230A9F008958730D9
:1001C000A9F08830C9F08430B1F4809180008F7D2F
:1001D00003C0809180008F7780938000089584B55C
:1001E0008F7784BD089584B58F7DFBCF8091B0005B
:1001F0008F778093B00008958091B0008F7DF9CF04
:100200001F93CF93DF93282F30E0F901ED5BFE4F72
:100210008491F901E15DFE4FD491F901E55EFE4F55
:10022000C491CC23A9F0162F81110E94D700EC2F86
:10023000F0E0EE0FFF1FEF5EFE4FA591B4918FB778
:10024000F894EC91111108C0D095DE23DC938FBF98
:10025000DF91CF911F910895DE2BF8CFCF93DF93DD
:1002600090E0FC01E15DFE4F2491855E9E4FFC0114
:1002700084918823C9F090E0880F991FFC01E95F01
:10028000FE4FA591B491FC01EF5EFE4FC591D49154
:1002900061110DC09FB7F8948C91209582238C93A7
:1002A0008881282328839FBFDF91CF9108956230F2
:1002B00051F49FB7F8943C91822F809583238C93BF
:1002C000E8812E2BEFCF8FB7F894EC912E2B2C9347
:1002D0008FBFEACF8E50806480937C0080917A003B
:1002E000806480937A0080917A0086FDFCCF8091B3
:1002F00078009091790008953FB7F8948091410279
:1003000090914202A0914302B091440226B5A89B6D
:1003100005C02F3F19F00196A11DB11D3FBFBA2F97
:10032000A92F982F8827BC01CD01620F711D811D57
:10033000911D42E0660F771F881F991F4A95D1F7DC
:100340000895AF92BF92CF92DF92EF92FF920F93F8
:100350001F93CF93DF936C017B018B01040F151F5B
:10036000EB015E01AE18BF08C017D10759F06991C3
:10037000D601ED91FC910190F081E02DC601099527
:10038000892B79F7C501DF91CF911F910F91FF90D4
:10039000EF90DF90CF90BF90AF900895FC01538D08
:1003A000448D252F30E0842F90E0821B930B54174F
:1003B00010F0CF96089501970895FC01918D828DDC
:1003C000981761F0A28DAE0FBF2FB11D5D968C9175
:1003D000928D9F5F9F73928F90E008958FEF9FEFB4
:1003E0000895FC01918D828D981731F0828DE80F70
:1003F000F11D858D90E008958FEF9FEF0895FC012A
:10040000918D228D892F90E0805C9F4F821B9109F6
:100410008F739927089587EB92E00E94FF0121E0F6
:10042000892B09F420E0822F089580E090E0892B49
:1004300029F00E940B0281110C9400000895FC0128
:10044000A48DA80FB92FB11DA35ABF4F2C91848D35
:1004500090E001968F739927848FA689B7892C9392
:10046000A089B1898C91837080648C93938D848DE5
:10047000981306C00288F389E02D80818F7D8083E8
:100480000895EF92FF920F931F93CF93DF93EC01A8
:1004900081E0888F9B8D8C8D98131AC0E889F9892B
:1004A000808185FF15C09FB7F894EE89FF8960832E
:1004B000E889F98980818370806480839FBF81E0AF
:1004C00090E0DF91CF911F910F91FF90EF900895F1
:1004D000F62E0B8D10E00F5F1F4F0F731127E02ECC
:1004E0008C8D8E110CC00FB607FCFACFE889F98904
:1004F000808185FFF5CFCE010E941F02F1CFEB8DE9
:10050000EC0FFD2FF11DE35AFF4FF0829FB7F894D7
:100510000B8FEA89FB8980818062CFCF0F931F9375
:10052000CF93DF938C01D0E0C0E0F801EC0FFD1F0A
:100530006491662341F087EB92E00E944102892B8F
:1005400011F02196F2CFCE01DF91CF911F910F9143
:100550000895CF93DF93EC01888D8823B9F0AA89A1
:10056000BB89E889F9898C9185FD03C0808186FD6E
:100570000DC00FB607FCF7CF8C9185FFF2CF8081BD
:1005800085FFEDCFCE010E941F02E9CFDF91CF9111
:100590000895089508951F93CF93DF93C1E0C0930A
:1005A000BF01882399F1D091B8001091BA008091D1
:1005B000BC008A7B8093BC0060E082E10E94000165
:1005C00060E083E10E94000110928D02C0938C02D2
:1005D0001092670261E082E10E94000161E083E124
:1005E0000E9400018091B9008E7F8093B9008091B4
:1005F000B9008D7F8093B90088E48093B80085E4CA
:100600008093BC001093BA00D093B800DF91CF91D3
:100610001F9108952091E001260F3327331F2132C7
:100620003105ECF420918D02FC0190E080E0243053
:1006300069F082E00895A091E0012191AC0140545D
:100640005E4FA40FB52FB11D2C930196861798F31A
:100650008091E001680F6093E00180E0089581E0FF
:1006600008950895E091460280914502E81730F41C
:10067000F0E0E95BFD4F808190E008958FEF9FEF00
:10068000089590914602809145022FEF3FEF981711
:1006900048F4E92FF0E0E95BFD4F208130E09F5FF7
:1006A00090934602C90108958091450290914602B7
:1006B000891B990B0895CF92DF92EF92FF920F93CF
:1006C0001F93CF93DF937C01CB018A012091B60267
:1006D000222389F0EB016B01C40ED51ECC15DD057C
:1006E00069F06991D701ED91FC910190F081E02DC5
:1006F000C7010995F3CF642F0E940A03C801DF9157
:10070000CF911F910F91FF90EF90DF90CF900895C0
:10071000CF93DF931F92CDB7DEB769832091B602E6
:100720002223F9F02091B302203258F021E030E08A
:10073000FC013383228390E080E00F90DF91CF9122
:1007400008958091B402E82FF0E0ED56FD4F9981B5
:1007500090838F5F8093B4028093B30281E090E036
:10076000ECCF61E0CE0101960E940A03F7CF90E042
:1007700080E00895CF92DF92EF92FF92CF93DF93C4
:10078000EC01603282E07807CCF5653B710514F02E
:1007900064EB70E0898128E830E0281B310987FD8F
:1007A0003395220F331F220F331F6901330FEE08D9
:1007B000FF088A8128E532E0281B310987FD33953F
:1007C000220F331F220F331F032E000C440B550B37
:1007D0002C193D094E095F09DB0177FF02C0B0E02B
:1007E000A0E00E94AB1324EB30E040E050E00E9418
:1007F0008113C20ED31EE41EF51EB601E881EC3053
:1008000070F5298188E890E0821B910927FD939576
:10081000880F991F880F991F681779077CF02A8124
:1008200088E592E0821B910927FD9395880F991F17
:10083000880F991F681779070CF4CB010297880F6E
:10084000991F4FB7F8942E2F30E0F901EE0FFF1FDC
:10085000E20FF31FE556FE4F928381834FBFDF9176
:10086000CF91FF90EF90DF90CF9008951F93CF939B
:10087000DF93EC01162F88818C3008F04EC061E0C8
:10088000812F0E942E018881282F30E0F901EE0F80
:10089000FF1FE20FF31FE556FE4F1F736081607C60
:1008A000612B608319821A822CE0622F0E94E4136C
:1008B000829FB001112430E020E0AB01420F531FB2
:1008C000FA01EE0FFF1FE40FF51FE556FE4F908172
:1008D00096FD16C02F5F3F4F2C30310571F7811107
:1008E0000FC01092800082E08093810010928500FA
:1008F00010928400B19A80916F00826080936F00A3
:10090000E8818E2F90E0FC01EE0FFF1FE80FF91F2A
:10091000E556FE4F8081806480838881DF91CF918E
:100920001F9108958091330281110DC081E0809361
:100930003302109232021092310281E090E09093E3
:100940002A02809329020895FC0101900020E9F712
:100950003197AF01481B590BBC0187EB92E00C9417
:10096000A1018F929F92AF92BF920F931F93CF934B
:10097000DF93CDB7DEB7A1970FB6F894DEBF0FBEF9
:10098000CDBF19A2423008F44AE08E010F5D1F4F1F
:10099000842E912CB12CA12CA50194010E94B3139B
:1009A000E62FB901CA01EA30F4F4E05DD801EE9314
:1009B0008D01232B242B252B79F790E080E01097D5
:1009C00019F0CD010E94A404A1960FB6F894DEBFE1
:1009D0000FBECDBFDF91CF911F910F91BF90AF9010
:1009E0009F908F900895E95CE1CFCF93DF930E94B1
:1009F0008E02EC018EE491E00E94A4048C0F9D1FF6
:100A0000DF91CF91089581E591E00E94A4048EE4E6
:100A100091E00E94A4048091330281110DC081E015
:100A20008093330210923202109231028AE090E0F9
:100A300090932A028093290208954F925F926F92B9
:100A40007F928F929F92AF92BF92CF92DF92EF925E
:100A5000FF920F931F93CF936B017C01742EAC0117
:100A60009B010E943416882399F085E691E0CF918E
:100A70001F910F91FF90EF90DF90CF90BF90AF90BC
:100A80009F908F907F906F905F904F900C94A404F4
:100A900046015701E894B7F82FEF3FEF4FE75FE7C4
:100AA000C501B4010E94341681110DC02FEF3FEF34
:100AB0004FE75FE7C501B4010E946A1418161CF4E1
:100AC00089E691E0D4CF2FEF3FEF4FE75FE4C70116
:100AD000B6010E94C21518161CF48DE691E0C7CF2E
:100AE0002FEF3FEF4FE75FECC701B6010E946A149A
:100AF00087FDF3CF20E030E0A901C701B6010E94D5
:100B00006A1410E000E087FF0AC06DE287EB92E014
:100B10000E9441028C01F7FAF094F7F8F094C0E0DB
:100B200060E070E080E09FE37C1641F020E030E080
:100B300040E251E40E946F14CF5FF6CFA701960107
:100B40000E94FE132B013C010E94E1144B015C0149
:100B50004AE00E94B1047C01E00EF11ECC23C1F1F9
:100B6000C501B4010E9410159B01AC01C301B20183
:100B70000E94FD134B015C016EE287EB92E00E9444
:100B80004102E80EF91EC15018F120E030E040E2C9
:100B900051E4C501B4010E94C7152B013C010E941C
:100BA000E1144B01B12CA12C4AE0C501B4010E9413
:100BB000B104E80EF91EC501B4010E9410159B0195
:100BC000AC01C301B2010E94FD134B015C01DBCFFC
:100BD000C701CF911F910F91FF90EF90DF90CF90C1
:100BE000BF90AF909F908F907F906F905F904F904D
:100BF00008952F923F924F925F926F927F928F92C1
:100C00009F92AF92BF92CF92DF92EF92FF920F939B
:100C10001F93CF93DF93DC011496ED91FC91EF2BA2
:100C200009F4EFC159011A018C01FC018181928103
:100C3000208131E03093B6022093B5021092B402C5
:100C40001092B302DC01ED91FC910280F381E02D62
:100C500041E050E00995019709F0D3C1D091B3026A
:100C600081E0D13208F09BC0C091B5020E947C01A6
:100C70006B017C0180918D0281116BC082E08093B9
:100C80008D0210928C028FEF80938B0210928A0259
:100C9000D0938902A3E9B2E0E9E6F2E080E0D8135C
:100CA00010C11092680280916802CC0FC82BC093CB
:100CB000680280916702813009F007C110926702D3
:100CC0000E947C016B017C01809168028093BB00D3
:100CD00080918F0290919002A0919102B091920226
:100CE000892B8A2B8B2BA1F00E947C0140908F02D4
:100CF0005090900260909102709092026C197D0960
:100D00008E099F09461657066806790608F442C000
:100D10008091BC0083FDD8CF85EC8093BC000E94FD
:100D20007C016B017C0180918D02823009F4CFC07F
:100D300080918B028F3F09F4ECC080918B0280324E
:100D400009F4E9C080918B02803309F4E6C084E0A5
:100D500026C080918F0290919002A0919102B09153
:100D60009202892B8A2B8B2B09F484CF0E947C0161
:100D700040908F0250909002609091027090920289
:100D80006C197D098E099F09461657066806790673
:100D900008F070CF80918E020E94CB0285E0109205
:100DA000B4021092B3021092B60281112AC1D12C62
:100DB000C12CF801848195817501EC18FD088E1510
:100DC0009F0508F47C01D801DC910E947C012B0175
:100DD0003C0180918D028111A2C0CE2DC13208F05C
:100DE000C0E2B1E0B0938D0221E0C5018E199F09E8
:100DF000C816D90608F420E020938C02EFEFE093A8
:100E00008B0210928A028FEF8C0F80938902F1E09F
:100E1000F093680280916802DD0FD82BD0936802AE
:100E200080916702813009F0BEC0109267020E9473
:100E30007C012B013C01809168028093BB00809172
:100E40008F0290919002A0919102B0919202892B11
:100E50008A2B8B2BA1F00E947C0120918F02309174
:100E6000900240919102509192026419750986098D
:100E70009709261737074807590708F471C080916A
:100E8000BC0083FDD8CF85EC8093BC000E947C0120
:100E90002B013C0180918D02813009F488C0809142
:100EA0008A028C1710F4C0918A02A9E6B2E0E7E446
:100EB000F2E080E08C1709F458C09D9191938F5F08
:100EC000F9CF9D9191938F5FEACE85EE26CF8091E9
:100ED0008F0290919002A0919102B0919202892B81
:100EE0008A2B8B2B09F41FCF0E947C0140908F022C
:100EF0005090900260909102709092026C197D095E
:100F00008E099F09461657066806790608F00BCF2A
:100F100041CF80E044CF82E042CF83E040CF809158
:100F20008F0290919002A0919102B0919202892B30
:100F30008A2B8B2B09F44DCF0E947C0120918F02CC
:100F4000309190024091910250919202641975097A
:100F500086099709261737074807590708F039CF38
:100F600080918E020E94CB02C0E010924602C09394
:100F70004502CE151F0409F044C041018C0C9D1C94
:100F8000E401CE01881999098E159F0590F5F801A5
:100F900081819281DC01ED91FC910284F385E02D49
:100FA00009958993EECFA5EEA093BC006FCF8091F9
:100FB0008F0290919002A0919102B0919202892BA0
:100FC0008A2B8B2B09F466CF0E947C0120918F0223
:100FD00030919002409191025091920264197509EA
:100FE00086099709261737074807590708F052CF8F
:100FF000B7CFCE0CDF1CCA14DB0408F4DACE81E0D4
:1010000001C080E0DF91CF911F910F91FF90EF9091
:10101000DF90CF90BF90AF909F908F907F906F9018
:101020005F904F903F902F9008950C94D5160F939A
:101030001F93CF93DF938C01EB0188E2FB011192A8
:101040008A95E9F74BE050E061E771E0CE010E943C
:101050005E171B8681E090E0A0E0B0E08C879D8762
:10106000AE87BF87F8014489558966897789488B9F
:10107000598B6A8B7B8B8C8B9D8BAE8BBF8B1CA211
:101080001DA21EA21FA2188E198E1A8E1B8E1C8ED8
:101090001D8E1E8E1F8E18A219A21AA21BA2DF91EE
:1010A000CF911F910F9108954F925F926F927F920F
:1010B0008F929F92AF92BF92EF92FF920F931F93E6
:1010C000CF93DF9300D000D000D01F92CDB7DEB712
:1010D0008C017B01FB01349680E2DF011D928A9531
:1010E000E9F784E290E0A0E0B0E0FB018083918327
:1010F000A283B383F80184899589A689B789FB0106
:1011000084839583A683B78381E090E0A0E0B0E07C
:1011100080879187A287B387108A118A128A138ADF
:1011200089831A821B821C821D821E8226E030E087
:10113000AE014F5F5F4FBA01F801808D918D0E9423
:10114000F90589819A819827892798279595879508
:1011500095958795D80113969C938E9312978B81C2
:101160009C819827892798279595879595958795A8
:1011700015969C938E9314978D819E81982789272D
:101180009827959587959595879517969C938E9317
:1011900016978EE08F8321E030E0AE01495F5F4F0C
:1011A000BA0158968D919C910E94F9058F818370A8
:1011B00060E074E0823051F060E078E0813031F03E
:1011C00061E070E0811102C060E070E190E080E0D9
:1011D0000E9410154B015C01F80162817381072E9A
:1011E000000C880B990B0E941215A50194010E9416
:1011F0006F142B013C01D80118964D925D926D92AF
:101200007C921B9714966D917C91072E000C880B95
:10121000990B0E941215A50194010E946F14F80108
:10122000648775878687978766817781072E000C8C
:10123000880B990B0E941215A50194010E946F144E
:10124000D80150966D937D938D939C9353972AE08C
:1012500038EE4CE151E4C301B2010E94C715F70119
:10126000648B758B868B978B2AE038EE4CE151E4CA
:10127000D8011C966D917D918D919C911F970E9434
:10128000C715F701608F718F828F938F2AE038EE38
:101290004CE151E4D80150966D917D918D919C91D6
:1012A00053970E94C715F701648F758F868F978FAC
:1012B00081E027960FB6F894DEBF0FBECDBFDF9159
:1012C000CF911F910F91FF90EF90BF90AF909F90A3
:1012D0008F907F906F905F904F90089585ED8093F1
:1012E000BC0080918F0290919002A0919102B091E8
:1012F00092020796A11DB11D23E0B695A79597957B
:1013000087952A95D1F72091BC0024FD03C0109247
:101310008D02089540918F02509190026091910248
:1013200070919202452B462B472B69F30097A1053C
:10133000B10541F02AE22A95F1F700C00197A10911
:10134000B109E1CF80918E020C94CB021F920F92D3
:101350000FB60F9211242F933F938F939F93AF93C8
:10136000BF9380913D0290913E02A0913F02B091C7
:10137000400230913C0223E0230F2D3758F50196AF
:10138000A11DB11D20933C0280933D0290933E022B
:10139000A0933F02B093400280914102909142029B
:1013A000A0914302B09144020196A11DB11D80930A
:1013B000410290934202A0934302B0934402BF9132
:1013C000AF919F918F913F912F910F900FBE0F90F2
:1013D0001F90189526E8230F0296A11DB11DD2CFAC
:1013E0001F920F920FB60F9211242F933F934F939A
:1013F0005F936F937F938F939F93AF93BF93EF937D
:10140000FF9387EB92E00E941F02FF91EF91BF9143
:10141000AF919F918F917F916F915F914F913F918C
:101420002F910F900FBE0F901F9018951F920F9243
:101430000FB60F9211242F938F939F93EF93FF93E7
:10144000E091C702F091C8028081E091CD02F09155
:10145000CE0282FD1BC090818091D0028F5F8F737E
:101460002091D102821741F0E091D002F0E0E954DE
:10147000FD4F958F8093D002FF91EF919F918F91B7
:101480002F910F900FBE0F901F9018958081F4CF71
:101490001F920F920FB60F9211242F933F934F93E9
:1014A0005F936F937F938F939F93AF93BF93EF93CC
:1014B000FF938091B900887F803609F44AC0F0F527
:1014C000883209F4A5C018F5803109F499C0B8F440
:1014D000882309F4F5C0883009F492C0FF91EF9198
:1014E000BF91AF919F918F917F916F915F914F913C
:1014F0003F912F910F900FBE0F901F90189588313C
:1015000009F486C0803251F780938B0214C0803476
:1015100009F49BC040F48033B9F38833F9F6809323
:101520008B0285ECAEC0803509F483C0883509F4A0
:1015300094C0883499F60E946E09D0CF883909F496
:101540008AC038F5883729F050F4883611F0803792
:1015500029F683E080938D021092020255C08838EC
:1015600009F479C0803919F0803809F0B7CF80913B
:101570000202803208F06FC0E091020281E08E0F1B
:10158000809302028091BB00F0E0EE51FE4F808319
:101590003BC0803B39F0D0F4803A09F477C0883AF8
:1015A00009F09CCF84E080938D021092E1011092AB
:1015B000E001F0E0E0E009958091E00181110FC0C9
:1015C00081E08093E0011092C00109C0803C09F4E1
:1015D000A8CF883C09F4A5CF883B09F07FCFE091E4
:1015E000E10181E08E0F8093E101F0E0E054FE4FD5
:1015F00080818093BB009091E1018091E00129C03E
:10160000809168028093BB0085EC8093BC0066CF1C
:1016100090918A0280918902981758F5E0918A0288
:1016200081E08E0F80938A02F0E0E759FD4F8081C0
:10163000E9CFE0918A0281E08E0F80938A02809147
:10164000BB00F0E0E759FD4F808390918A028091C2
:1016500089029817C8F285E8D8CFE0918A0281E024
:101660008E0F80938A028091BB00F0E0E759FD4F16
:10167000808380918C0281115ECF81E0809367022C
:1016800084EA8093BC0010928D0228CF85EC809371
:10169000BC0010928D0280910202803230F4E09101
:1016A0000202F0E0EE51FE4F10826091020270E003
:1016B00082EE91E0F0E0E0E00995109202020ECF98
:1016C00010928B0238CF1F920F920FB60F921124F7
:1016D0002F933F934F935F936F937F938F939F933A
:1016E000AF93BF93CF93DF93EF93FF9380919901D3
:1016F000C0919A01D0E087FF24C01092850010921B
:101700008400809199018F5F809399018091990164
:10171000082E000C990B8C179D0724F480919901D9
:101720008C30C4F1809184009091850004968034BF
:101730009C4908F47AC080918400909185000496B9
:1017400076C080919901082E000C990B8C179D078B
:10175000C4F6E09199018E2FEE0F990BFC01EE0F6C
:10176000FF1FE80FF91FE556FE4F808186FFC9CFA6
:10177000E09199018E2FEE0F990BFC01EE0FFF1FE8
:10178000E80FF91FE556FE4F808160E08F730E94DD
:101790000001B7CF2091840030918500E09199013C
:1017A0008E2FEE0F990BFC01EE0FFF1FE80FF91FB4
:1017B000E556FE4F81819281820F931F909389009D
:1017C00080938800E09199018E2FEE0F990BFC0118
:1017D000EE0FFF1FE80FF91FE556FE4F808186FFD1
:1017E00011C0E09199018E2FEE0F990BFC01EE0FC5
:1017F000FF1FE80FF91FE556FE4F808161E08F73F0
:101800000E940001FF91EF91DF91CF91BF91AF91C5
:101810009F918F917F916F915F914F913F912F9108
:101820000F900FBE0F901F90189580E49CE9909345
:101830008900809388008FEF80939901E3CF1F92F6
:101840000F920FB60F9211248F939F9378948091EB
:10185000170290910B02891758F4289A8F5F809392
:1018600017029F918F910F900FBE0F901F901895A8
:101870002898F4CFFC0190919A019C3098F481E073
:10188000890F80939A019083892F90E0FC01EE0FDD
:10189000FF1FE80FF91FE556FE4F88EB9BE0928390
:1018A000818308958FEF80830895E7EBF2E0138240
:1018B000128288EE93E0A0E0B0E084839583A68353
:1018C000B78382E391E09183808385EC90E09587F4
:1018D000848784EC90E09787868780EC90E0918BFA
:1018E000808B81EC90E0938B828B82EC90E0958BE7
:1018F000848B86EC90E0978B868B118E128E138EE4
:10190000148EE3EBF3E084E491E091838083118E05
:10191000108E8FEF9FEFDC01848B958BA68BB78B9E
:1019200080EB93E00E943A0C8DEA93E00E943A0C1F
:101930008AEA93E00E943A0C87EA93E00E943A0C0C
:10194000E4E5F3E082E390E09383828380E991E031
:101950009583848380E293E09783868388EE93E087
:1019600091878087138612861586148617861686B9
:10197000118A108A138A128A158A148A178A168A7B
:10198000118E108E138E128E158E148E178E168E4B
:1019900011A210A213A212A215A214A217A216A29B
:1019A00011A610A613A612A615A614A617A616A66B
:1019B00011AA10AA13AA12AA15AA14AA17AA16AA3B
:1019C00011AE10AE12AE13AE14AE1092910310927F
:1019D0009203109293031092940310929503109225
:1019E0009603109297031092980310929903109205
:1019F0009A0310929B0310929C0310929E031092E4
:101A00009D0381E090E09093A00380939F03109248
:101A1000A2031092A1031092A3031092A4031092A8
:101A2000A5031092A6038DE090E09183808362E08D
:101A30000C942E01789484B5826084BD84B5816055
:101A400084BD85B5826085BD85B5816085BD809189
:101A50006E00816080936E00109281008091810001
:101A600082608093810080918100816080938100F9
:101A7000809180008160809380008091B1008460BB
:101A80008093B1008091B00081608093B00080911C
:101A90007A00846080937A0080917A0082608093DB
:101AA0007A0080917A00816080937A0080917A0038
:101AB000806880937A001092C100E091C702F09193
:101AC000C80282E08083E091C302F091C4021082D8
:101AD000E091C502F091C6028FEC80831092CF0294
:101AE000E091CB02F091CC0286E08083E091C902C4
:101AF000F091CA02808180618083E091C902F091F7
:101B0000CA02808188608083E091C902F091CA0294
:101B1000808180688083E091C902F091CA0280814F
:101B20008F7D808389E791E00E94A4048EE491E098
:101B30000E94A40460E08EE00E942E0160E08FE02D
:101B40000E942E0162E08DE00E942E0166E070E0AE
:101B500080EB93E00E94360468E070E08DEA93E049
:101B60000E9436046BE070E08AEA93E00E9436043B
:101B700070E060E080EB93E00E94BA0370E060E008
:101B80008DEA93E00E94BA0364E170E08AEA93E090
:101B90000E94BA0361E082E00E942E0161E085E0CC
:101BA0000E942E0161E084E00E942E0161E083E04A
:101BB0000E942E0182E994E090936703809366036C
:101BC00083E095E090937F0380937E038FB7F89432
:101BD000E3E0F2E027E132E011922E173F07E1F750
:101BE00028988FBF8FB7F894209A8FBF1092B000BB
:101BF00089E08093B10081E18093B300809170000F
:101C00008260809370001092170280917000826051
:101C1000809370000E947C014B015C01CBE1DEE40B
:101C2000CE010197F1F70E947C016B017C01C8187D
:101C3000D908EA08FB08809170008D7F80937000BE
:101C40000E947C014B015C012197F1F70E947C010D
:101C5000681979098A099B09A7019601261B370B88
:101C6000480B590BCA01B9010E9410154B015C01C8
:101C7000C701B6010E9410159B01AC01C501B4015A
:101C80000E946F146B017C016091B30070E06F5F84
:101C90007F4F072E000C880B990B0E9412159B0199
:101CA000AC0160E074E284E79BE40E946F144B0196
:101CB0005C0120E034E244E75BE4C701B6010E9426
:101CC000C715A50194010E946F142B013C018EEDF4
:101CD00090E00E94F50488EC90E00E948E024AE0B9
:101CE000C701B6010E941D058EE491E00E94A40484
:101CF00089EA90E00E948E0242E0C301B2010E9494
:101D00001D058EE491E00E94A40481E990E00E9408
:101D10008E0242E0C501B4010E941D058DE890E0ED
:101D20000E94F5048BE790E00E948E0220E030E0F4
:101D300040E85BE3C501B4010E94C71542E00E9480
:101D40001D0587E790E00E94F50488E690E00E9478
:101D50008E024AE060E071E080E090E00E94B10411
:101D60008EE491E00E94A4048091700082608093D0
:101D7000700088248A9423E0922EA12CB12C222476
:101D80002394312C02E010E08EE00E946A019093CF
:101D90003B0280933A028FE00E946A0190933902DD
:101DA00080933802209154033091550337FDF9C0D8
:101DB0003327F901ED5BFE4F8491F901E15DFE4FA0
:101DC000C491F901E55EFE4FD491DD2309F484C08E
:101DD00081110E94D700ED2FF0E0EE0FFF1FE350BE
:101DE000FF4FA591B491EC91CE2331E020E009F4AE
:101DF00030E0832F922F20915E0330915F0341E00A
:101E00002817390709F040E05FB7F894C0903D0209
:101E1000D0903E02E0903F02F09040025FBFC0923F
:101E20009503D0929603E0929703F09298032817B7
:101E3000390749F4809156039091570397FF03C0E7
:101E400031E030938F0380919003481348C0809114
:101E5000910390919203A0919303B0919403260172
:101E60003701481A590A6A0A7B0A809156039091F1
:101E7000570397FF03C0919581959109092E000C96
:101E8000AA0BBB0B481659066A067B0610F0409356
:101E90008F03C0918F038091990390919A03A09131
:101EA0009B03B0919C03B701A601481B590B6A0B19
:101EB0007B0B80918C0390918D038230910509F406
:101EC000BDC1C4F4009741F1019709F483C1109298
:101ED0008D0310928C0365C090E080E08CCFC0929F
:101EE0009103D0929203E0929303F0929403409373
:101EF0009003CFCF8630910509F420C28730910539
:101F000009F460C2039719F7CC2309F4A7C13092F2
:101F10008D0320928C0364C180918E03811115C0C2
:101F200080915C0390915D03B0E0A0E08417950779
:101F3000A607B70750F4E0918A03F0918B0330971E
:101F400021F041E040938E030995CC2351F130926A
:101F50008D0320928C038091950390919603A0911C
:101F60009703B09198038093990390939A03A09359
:101F70009B03B0939C0310929E0310929D03E091EB
:101F80006003F0916103309709F00995E0916203D5
:101F9000F0916303309729F0809164039091650379
:101FA00009958FB7F894C0903D02D0903E02E09022
:101FB0003F02F09040028FBFC0923402D0923502AF
:101FC000E0923602F09237026091B7037091B80345
:101FD000072E000C880B990B0E94121520E030E0B0
:101FE00040E859E30E94C7152B013C0120E030E096
:101FF00040E05FE30E94C215C0911802D09119021F
:1020000087FDF3C180911A0290911B02A0911C02DE
:10201000B0911D02A7019601281B390B4A0B5B0BDF
:10202000DA01C901843F9140A105B10588F0C930AA
:10203000D1050CF05AC32196D0931902C09318020F
:10204000C0921A02D0921B02E0921C02F0921D0272
:10205000C0911802D0911902CA30D105B0F4CC0F4A
:10206000DD1FCC0FDD1FCA5FDE4F6B8182E00E9457
:1020700000016A8185E00E940001698184E00E947C
:102080000001688183E00E9400016091B5037091B6
:10209000B603072E000C880B990B0E94121520E046
:1020A00030E040E859E30E94C7152B013C0120E0D5
:1020B00030E040E85EE30E94C21587FDBDC180911B
:1020C0001A0290911B02A0911C02B0911D02C81A25
:1020D000D90AEA0AFB0A44EFC41641E0D406E10437
:1020E000F10438F0309223022092220251E0509302
:1020F000240280912402882309F4DDC18CE891E058
:102100000E94A404C0902202D09023020D2C000C47
:10211000EE08FF084AE0C701B601F7FE0DC06DE208
:1021200087EB92E00E94410266277727CB016C196A
:102130007D098E099F094AE00E94B1048EE491E076
:102140000E94A4046091340270913502809136029D
:1021500090913702C0901E02D0901F02E0902002A2
:10216000F09021026C197D098E099F094AE00E94B6
:10217000B1048EE491E00E94A40480912202909127
:102180002302009709F481C18130910509F423C22B
:10219000019609F090C18091340290913502A0918E
:1021A0003602B091370240911E0250911F02609199
:1021B000200270912102841B950BA60BB70B843C67
:1021C0009940A105B10508F4FFC1109223021092B5
:1021D000220271C1C1110DC010938D0300938C03B5
:1021E000C0929903D0929A03E0929B03F0929C03D1
:1021F000D8CE80915A0390915B03B0E0A0E08417A1
:102200009507A607B70708F0CCCEE0917803F091C8
:102210007903309709F00995E0917A03F0917B03F7
:10222000309729F080917C0390917D03099586E099
:1022300090E090938D0380938C03B3CE80919D03A7
:1022400090919E03019690939E0380939D0323E0BB
:1022500030E030938D0320938C03A3CE80919D03B7
:1022600090919E03C0905803D0905903F12CE12C1B
:102270004C155D056E057F0540F420919F0330915C
:10228000A0038217930709F08CCE8130910579F570
:10229000E0916603F0916703309709F00995E091AA
:1022A0006803F091690380916A0390916B03309702
:1022B00089F510928D0310928C0310929E03109258
:1022C0009D032FB7F89480913D0290913E02A0911A
:1022D0003F02B09140022FBF8093990390939A03DD
:1022E000A0939B03B0939C0310928E035ACE029747
:1022F00099F4E0916C03F0916D03309709F0099522
:10230000E0916E03F0916F038091700390917103DF
:10231000309779F20995CDCFE0917203F091730374
:10232000309709F00995E0917403F091750380915D
:10233000760390917703309769F7BBCFC11107C03F
:1023400047E050E050938D0340938C032ACE809158
:10235000A3039091A403A091A503B091A603C81A6A
:10236000D90AEA0AFB0A8091A1039091A203B0E086
:10237000A0E0C816D906EA06FB0608F412CEE091E2
:102380008403F0918503309709F00995E091860365
:10239000F0918703309729F0809188039091890309
:1023A00009958091950390919603A0919703B09120
:1023B00098038093A3039093A403A093A503B093E1
:1023C000A603EFCDE0917E03F0917F03309709F0F3
:1023D0000995E0918003F0918103309709F469CF6A
:1023E000809182039091830395CF20E030E040E01C
:1023F0005FEBC301B2010E946A1418160CF428CED8
:1024000080911A0290911B02A0911C02B0911D02B2
:10241000A7019601281B390B4A0B5B0BDA01C90196
:10242000843F9140A105B10508F412CE1C161D068B
:102430000CF00ECE219700CE20E030E040E85EEBBD
:10244000C301B2010E946A1418160CF452CE809196
:102450001A0290911B02A0911C02B0911D02C81A91
:10246000D90AEA0AFB0A84EFC81681E0D806E1041B
:10247000F10408F43ECE2FEF3FEF30932302209378
:10248000220231E03093240234CE70E060E087EA2B
:1024900093E00E94BA038091340290913502A0919A
:1024A0003602B091370280931E0290931F02A093D0
:1024B0002002B0932102C0913802D0913902A0913C
:1024C0003A02B0913B0228E730E00E94F013A501E8
:1024D00094010E94811369017A018CE3C81AD10822
:1024E000E108F108D0922802C092270228EE33E0DA
:1024F000DE010E94F013A50194010E9481132901BD
:102500003A0198EE490E93E0591E611C711C5092DD
:1025100026024092250224E0C20ED11C39E0C316E7
:10252000D10430F44AE550E050932802409327024A
:1025300060912702709128026B3F5FEF750714F4DA
:102540006C547F4F80EB93E00E94BA03B2018DEA96
:1025500093E00E94BA0380913302882341F1809175
:102560003102909132028130910509F451C08230DC
:10257000910509F47EC0892BD1F464E170E08AEA08
:1025800093E00E94BA038091340290913502A091A9
:102590003602B091370280932D0290932E02A093C1
:1025A0002F02B0933002309232022092310280E04A
:1025B00090E0892B09F4E8CB0E940B02882309F4F0
:1025C000E3CB0E940000E0CB6EE170E087EA93E08D
:1025D0000E94BA0370CF8091340290913502A0918D
:1025E0003602B091370240911E0250911F02609155
:1025F000200270912102841B950BA60BB70B843C23
:102600009940A105B10508F0E0CD60EA70E0DECFA9
:10261000C0903402D0903502E0903602F09037023C
:1026200080912D0290912E02A0912F02B091300244
:10263000A7019601281B390B4A0B5B0BDA01C90174
:102640008C329140A105B10508F4B1CF66E970E084
:102650008AEA93E00E94BA03C0922D02D0922E0221
:10266000E0922F02F0923002109332020093310276
:102670009ECF8091340290913502A0913602B091A4
:10268000370240912D0250912E0260912F027091DD
:102690003002841B950BA60BB70B8C329140A10521
:1026A000B10508F484CF64E170E08AEA93E00E9407
:1026B000BA0380912B0290912C02019690932C02E8
:1026C00080932B022091290230912A0282179307CE
:1026D0003CF010922C0210922B021092330267CF22
:1026E000109232021092310262CF20E030E040E0DE
:1026F0005FEBC301B2010E946A1418160CF096CE6B
:10270000A7CC052E97FB1EF400940E94981357FD4A
:1027100007D00E94B31307FC03D04EF40C94981317
:1027200050954095309521953F4F4F4F5F4F0895FD
:1027300090958095709561957F4F8F4F9F4F08952D
:102740000E94D513A59F900DB49F900DA49F800D5E
:10275000911D11240895B7FF0C94A0130E94A0139B
:10276000821B930B0895A1E21A2EAA1BBB1BFD012D
:102770000DC0AA1FBB1FEE1FFF1FA217B307E40760
:10278000F50720F0A21BB30BE40BF50B661F771FB8
:10279000881F991F1A9469F7609570958095909598
:1027A0009B01AC01BD01CF010895A29FB001B39F71
:1027B000C001A39F700D811D1124911DB29F700D4A
:1027C000811D1124911D0895991B79E004C0991F62
:1027D000961708F0961B881F7A95C9F7809508957B
:1027E0000E94D513B7FF0895821B930B0895EE0F37
:1027F000FF1F0590F491E02D09945058BB27AA279C
:102800000E9415140C9488150E947A1538F00E94C5
:10281000811520F039F49F3F19F426F40C947715B4
:102820000EF4E095E7FB0C947115E92F0E949915C1
:1028300058F3BA17620773078407950720F079F4F5
:10284000A6F50C94BB150EF4E0950B2EBA2FA02D17
:102850000B01B90190010C01CA01A0011124FF274D
:10286000591B99F0593F50F4503E68F11A16F04048
:10287000A22F232F342F4427585FF3CF4695379547
:102880002795A795F0405395C9F77EF41F16BA0B0C
:10289000620B730B840BBAF09150A1F0FF0FBB1FBA
:1028A000661F771F881FC2F70EC0BA0F621F731F03
:1028B000841F48F4879577956795B795F7959E3F60
:1028C00008F0B0CF9395880F08F09927EE0F9795F1
:1028D000879508950E944D1508F481E008950E949F
:1028E00083140C9488150E94811558F00E947A1563
:1028F00040F029F45F3F29F00C94711551110C94AC
:10290000BC150C9477150E94991568F39923B1F3BF
:10291000552391F3951B550BBB27AA276217730705
:10292000840738F09F5F5F4F220F331F441FAA1F99
:10293000A9F335D00E2E3AF0E0E832D09150504055
:10294000E695001CCAF72BD0FE2F29D0660F771F03
:10295000881FBB1F261737074807AB07B0E809F0E9
:10296000BB0B802DBF01FF2793585F4F3AF09E3F6E
:10297000510578F00C9471150C94BC155F3FE4F38D
:10298000983ED4F3869577956795B795F7959F5FB1
:10299000C9F7880F911D9695879597F90895E1E0FD
:1029A000660F771F881FBB1F621773078407BA075C
:1029B00020F0621B730B840BBA0BEE1F88F7E095B7
:1029C00008950E94A11588F09F5798F0B92F992774
:1029D000B751B0F0E1F0660F771F881F991F1AF00A
:1029E000BA95C9F714C0B13091F00E94BB15B1E09F
:1029F00008950C94BB15672F782F8827B85F39F09E
:102A0000B93FCCF3869577956795B395D9F73EF4A2
:102A100090958095709561957F4F8F4F9F4F08954A
:102A2000E89409C097FB3EF4909580957095619568
:102A30007F4F8F4F9F4F9923A9F0F92F96E9BB271E
:102A40009395F695879577956795B795F111F8CF9A
:102A5000FAF4BB0F11F460FF1BC06F5F7F4F8F4F05
:102A60009F4F16C0882311F096E911C0772321F0FB
:102A70009EE8872F762F05C0662371F096E8862F93
:102A800070E060E02AF09A95660F771F881FDAF7EA
:102A9000880F9695879597F90895990F0008550F17
:102AA000AA0BE0E8FEEF16161706E807F907C0F0D4
:102AB00012161306E407F50798F0621B730B840BDC
:102AC000950B39F40A2661F0232B242B252B21F4B6
:102AD00008950A2609F4A140A6958FEF811D811D56
:102AE000089597F99F6780E870E060E008959FEF90
:102AF00080EC089500240A94161617061806090695
:102B0000089500240A941216130614060506089563
:102B1000092E0394000C11F4882352F0BB0F40F4EB
:102B2000BF2B11F460FF04C06F5F7F4F8F4F9F4F2B
:102B3000089557FD9058440F551F59F05F3F71F0AD
:102B40004795880F97FB991F61F09F3F79F0879514
:102B50000895121613061406551FF2CF4695F1DF9D
:102B600008C0161617061806991FF1CF869571052D
:102B7000610508940895E894BB2766277727CB0161
:102B800097F908950E944D1508F48FEF08950E945B
:102B9000DA150C9488150E947A1538F00E94811578
:102BA00020F0952311F00C9471150C9477151124D5
:102BB0000C94BC150E94991570F3959FC1F3950F65
:102BC00050E0551F629FF001729FBB27F00DB11DB1
:102BD000639FAA27F00DB11DAA1F649F6627B00D41
:102BE000A11D661F829F2227B00DA11D621F739F2A
:102BF000B00DA11D621F839FA00D611D221F749F38
:102C00003327A00D611D231F849F600D211D822F7E
:102C1000762F6A2F11249F5750409AF0F1F08823A5
:102C20004AF0EE0FFF1FBB1F661F771F881F9150D2
:102C30005040A9F79E3F510580F00C9471150C94FB
:102C4000BC155F3FE4F3983ED4F38695779567957E
:102C5000B795F795E7959F5FC1F7FE2B880F911DFC
:102C60009695879597F908950E944D15880B990BB5
:102C700008950F931F93CF93DF938230910510F443
:102C800082E090E0E091CF03F091D00330E020E0CB
:102C9000B0E0A0E0309799F42115310509F44AC05D
:102CA000281B390B24303105D8F58A819B816115A9
:102CB000710589F1FB0193838283FE0111C040817C
:102CC00051810281138148175907E0F048175907CD
:102CD00099F4109761F012960C93129713961C9327
:102CE0003296CF01DF91CF911F910F9108950093FC
:102CF000CF031093D003F4CF2115310551F04217C3
:102D0000530738F0A901DB019A01BD01DF01F80189
:102D1000C1CFEF01F9CF9093D0038093CF03CDCFF4
:102D2000FE01E20FF31F8193919322503109398301
:102D30002883D7CF2091CD033091CE03232B41F4AC
:102D400020910201309103013093CE032093CD03F3
:102D500020910001309101012115310541F42DB779
:102D60003EB74091040150910501241B350BE091C1
:102D7000CD03F091CE03E217F307A0F42E1B3F0B17
:102D80002817390778F0AC014E5F5F4F24173507DD
:102D900048F04E0F5F1F5093CE034093CD038193B5
:102DA00091939FCFF0E0E0E09CCFCF93DF9300972B
:102DB000E9F0FC01329713821282A091CF03B09107
:102DC000D003ED0130E020E01097A1F420813181A3
:102DD000820F931F2091CD033091CE03281739071E
:102DE00009F061C0F093CE03E093CD03DF91CF9162
:102DF0000895EA01CE17DF07E8F54A815B819E015D
:102E000041155105B1F7E901FB83EA8349915991D5
:102E1000C40FD51FEC17FD0761F4808191810296E4
:102E2000840F951FE90199838883828193819B8315
:102E30008A83F0E0E0E012968D919C9113970097C1
:102E4000B9F52D913C911197CD010296820F931FF8
:102E50002091CD033091CE032817390739F63097EA
:102E600051F51092D0031092CF03B093CE03A093EC
:102E7000CD03BCCFD383C28340815181840F951F82
:102E8000C817D90761F44E5F5F4F88819981480F59
:102E9000591F518340838A819B81938382832115AB
:102EA000310509F0B0CFF093D003E093CF039ECF6C
:102EB000FD01DC01C0CF13821282D7CFFB01DC0100
:102EC0004150504048F001900D920020C9F701C0D8
:0E2ED0001D9241505040E0F70895F894FFCF56
:102EDE000000D1038000000000000000000100008F
:102EEE0001000000010100010000000100010001CD
:102EFE0001000001010101000000010000010000BD
:102F0E0000004102A101CE01A902FF01DD01F10184
:102F1E0000000000C9021508CA02540817080D0A5D
:102F2E00004A6F79737469636B2052656C656173C7
:102F3E0065642120006E616E00696E66006F7666B4
:102F4E00004D4D413834353100496E7469616C69FC
:102F5E007A696E67204D61696E3A20004469726528
:082F6E006374696F6E3A2000E4
:00000001FF
